:10000000BBC0D5C0D4C0F1C3D2C0D1C0D0C0CFC056
:1000100017C3CDC0CCC0CBC0CAC0C9C0C8C0450082
:1000200049004D00510056005B00600066006C0006
:1000300073007A008100890091009900A200AC0051
:10004000B600C100CD00D900E600F30002011101A5
:1000500021013201450158016D0182019901B2016E
:10006000CC01E70104022302430266028A02B102C4
:10007000DA020503330363039703CD030704440443
:100080008504CB0412056205B3050A066606C6069A
:100090002D079B070F088B080A099509270AC10A33
:1000A000630B110CC90C8A0D5A0E360F1E10161157
:1000B00014122A134E148215C61622189219141BF4
:1000C000B41C6C1E3C202C22282454269C28042B73
:1000D0008C2D4430243328366839DA3C7840584433
:1000E00000000000010101020203040505060709E2
:1000F0000A0B0C0E0F1112141517191B1D1F2123AB
:1001000025282A2C2F313436393B3E414346494C71
:100110004F5255585A5D6164676A6D707376797C89
:10012000808386898C8F9295989B9EA2A5A7AAAD65
:10013000B0B3B6B9BCBEC1C4C6C9CBCED0D3D5D777
:10014000DADCDEE0E2E4E6E8EAEBEDEEF0F1F3F42F
:10015000F5F6F8F9FAFAFBFCFDFDFEFEFEFFFFFFE7
:100160000000000038000000000037000202020218
:10017000020201020408102011241FBECFE5D2E0C4
:10018000DEBFCDBF10E0A0E6B0E0EEE5FBE002C0D0
:1001900005900D92AC39B107D9F721E0ACE9B0E098
:1001A00001C01D92A93DB207E1F777D3D6C428CF8D
:1001B0003F924F925F926F927F928F929F92AF92F7
:1001C000BF92CF92DF92EF92FF920F931F93CF9344
:1001D000DF93382E0FEF10E020E030E0C12CD12C5F
:1001E0007601812C912C54018A94412C512C32019E
:1001F00050E040E0C82FD0E0CA01880F991FFC01F1
:10020000EA59FF4FA081B181CA17DB07F0F0FC016A
:10021000E859FF4F608171816C177D07B0F04B0189
:10022000B12CA12C2D01712C612CFC01EE58FF4F3B
:100230000081118130E020E080599F4FFC01C08097
:10024000D180F12CE12C4FE050E04F5F5F4F443004
:10025000510594F2632D70E090E080E06419750917
:1002600086099709A90198012C193D094E095F09D2
:10027000D9D3A50194012419350946095709EBD3AF
:10028000CA01B9016C0D7D1D8E1D9F1DDF91CF919F
:100290001F910F91FF90EF90DF90CF90BF90AF90A4
:1002A0009F908F907F906F905F904F903F900895B8
:1002B00017B8379A329A319A309A339A8FB7806842
:1002C0008FBF0895CF92DF92EF92FF920F931F930B
:1002D000CF93DF9380939C00AC014F5F5F4F440F3F
:1002E000551FFA01E25EFF4F25913491FA01E45E59
:1002F000FF4F45915491241B350B220F331FCC2403
:10030000DD24C21AD30A0D2C000CEE08FF08C091A0
:10031000D801D0E0FE01E80FF91FEE0FFF1FE25EEB
:10032000FF4F059114916091650070E090E080E0CE
:10033000032E000C440B550B2C193D094E095F0987
:1003400071D32FEF30E040E050E085D3C20ED31ED2
:10035000E41EF51E000F111F0C0D1D1D1093BB0098
:100360000093BA00E091B100F0E0E658FF4FE08161
:10037000EC0FFD2FF11DEE0FFF1FE25EFF4F859189
:100380009491880F991FC80ED91ED092B700C092C1
:10039000B600DF91CF911F910F91FF90EF90DF900A
:1003A000CF9008950F931F93CF93DF93282FE09161
:1003B0006200F09163006CE09DD3AF0102C05695DE
:1003C00047959A95E2F740FD15C030E0C22FD0E086
:1003D0000CE010E0CE01830F911DB80197D3AF015F
:1003E00002C0569547958A95E2F740FD02C03F5FEF
:1003F000F1CF230F822FDF91CF911F910F9108959D
:1004000090E0FC01EE58FE4F249184599E4FFC0170
:100410008491882399F090E0880F991FFC01EA5994
:10042000FE4FA591B491FC01E05AFE4F8591949145
:100430008FB7F894EC91E22BEC938FBF0895E4C250
:100440001F93CF93DF938091D2019091D60199238E
:10045000E9F19FEF9093B3001092B50021E930E0ED
:100460003093630020936200833A08F18091D301B6
:10047000809365006091D50170E090E080E02DE010
:1004800030E040E050E0CED22FEF30E040E050E0EE
:10049000E2D22093D8018091CB008ADE862F82DFC2
:1004A0008093B20090E0DF91CF911F910BCF10921B
:1004B000D6016091D80190E080E0C1DF60916500D5
:1004C00081E090E0DF91CF911F91B9CF8C38C0F5DA
:1004D00082E08093B100E091B100F0E0EE0FFF1FE9
:1004E000EE57FF4F8081918190936300809362006B
:1004F0008091C100C091D301833081F58091D501F5
:100500009091D00098138093B5001091B200109391
:10051000B0008091CB004CDE862F44DFD82F809333
:10052000B200C436A8F51817B9F18091B30084362B
:1005300098F58D2F90E0C6DE8FEF8093B3002CC02E
:10054000863910F483E0C5CF863A10F086E0C1CF3B
:100550008D3910F085E0BDCF84E0BBCF8130A9F6A6
:100560008091CE00C81789F2C53668F081E090E02E
:10057000C93720F02C2F2857330BC9019093610005
:1005800080936000C2CF84E690E08C1B9109F6CF87
:1005900090E098DE1D13D0CF209160003091610073
:1005A0002115310561F08091AE009091AF00069663
:1005B0008217930778F59093AF008093AE008091F7
:1005C000AD008F5F8830C0F58093AD00E091AD0045
:1005D000F0E0EE0FFF1FE356FF4F8091B30090E075
:1005E00091838083EDE9F0E02DEA30E090E080E057
:1005F00041915191840F951F2E173F07C9F723E0B2
:10060000969587952A95E1F78093B400DF91CF9175
:100610001F9108958091B3001092AF001092AE0028
:10062000882369F29FEF980F82958695869583704F
:10063000981B9093B300C3CF1092AD00C7CFDCC11D
:100640001F920F920FB60F9211242F933F934F9347
:100650005F936F937F938F939F93AF93BF93EF932A
:10066000FF938091D7018F5F8093D7012091640021
:10067000822F90E0FC01EE52FE4F30814091D1007C
:10068000411174C083539F4FDC013C9394B185B1F9
:1006900089279827892796958795969587958083AA
:1006A000223091F58091CA008F5F843008F058C0E5
:1006B0008093CA00E091CA00F0E0EE0FFF1FEE53F6
:1006C000FF4F8091D40190E0918380838091C2009C
:1006D0009091C3004091C4005091C500840F951FB4
:1006E0004091C6005091C700840F951F4091C800EB
:1006F0005091C900840F951F96958795969587957B
:100700009093CC008093CB002093C1008091C000D7
:100710008F5F863040F58093C000E091C000F0E02C
:10072000EA56FF4F80818093640097B1907797B924
:1007300097B1892B87B981E08093D100369AFF91D8
:10074000EF91BF91AF919F918F917F916F915F9149
:100750004F913F912F910F900FBE0F901F901895C2
:100760001092CA00A7CF1092C000D7CF383C90F4A7
:1007700027B38E569F4FFC01308181E090E0A0E0CE
:10078000B0E004C0880F991FAA1FBB1F3A95D2F78B
:10079000822B87BB27B3E0916400F0E0EE56FF4F59
:1007A000308181E090E0A0E0B0E0AC01BD0104C088
:1007B000440F551F661F771F3A95D2F74095422385
:1007C00047BB28B3E0916400F0E0EE56FF4F308164
:1007D00004C0880F991FAA1FBB1F3A95D2F78095B6
:1007E000822388BB1092D100A9CF1F920F920FB61F
:1007F0000F9211242F933F934F935F936F937F93A7
:100800008F939F93EF93FF938091BF0089BD809159
:10081000BE0088BD8091BC009091BD002091BA00BF
:100820003091BB00820F931F9093BD008093BC005A
:100830002091B8003091B9004091B6005091B700B6
:10084000240F351F3093B9002093B800892F9927C2
:10085000FC01EE52FF4F80819091B5008927609195
:10086000B40070E090E035D19093BF00232F332780
:10087000F901EE52FF4F80818093BE00FF91EF910E
:100880009F918F917F916F915F914F913F912F91A8
:100890000F900FBE0F901F9018950ADDE0EEF0E06C
:1008A00082ED90E022E531E0DC0144914D933196F8
:1008B0002A173B07D1F72FEF20935201E1E5F1E032
:1008C000A3E5B1E020812D9331978E179F07D1F7D3
:1008D0008FB7F894C59A8FBF80E092DD81E090DDFC
:1008E00088E090E0ACDE8B3709F051C089E090E001
:1008F000A6DE813509F04BC08AE090E0A0DE863D9F
:1009000009F045C090E080E09ADE6CE0F3D090936F
:10091000D80181E090E093DE8093650087B5826026
:1009200087BD87EC90E00197F1F700C0000007B4A5
:1009300000FEFDCF87B5846087BD87B5806887BD21
:10094000F89483EA8ABD81E083BF10BE1FBC82E0B9
:100950008CBD8FEF8EBD8DBD80E489BF84E880BFE4
:100960007894A6DC8091640097B1907797B997B19D
:10097000892B87B9369A87EC90E00197F1F700C090
:1009800000008091D7018C30C8F45ADDFACF609115
:10099000D80190E080E053DD6091650081E090E057
:1009A0004EDD6BE788E090E04ADD61E589E090E0AC
:1009B00046DD66ED8AE090E042DDB0CF81E08093D5
:1009C000D6018091D201823A10F41092D601809122
:1009D000D6019091D301983C08F480E09091D40125
:1009E000983C08F480E09091D501983C08F480E0B0
:1009F0008093D60125DDFECFE199FECF9FBB8EBB54
:100A0000E09A99278DB30895262FE199FECF1CBA5D
:100A10009FBB8EBB2DBB0FB6F894E29AE19A0FBE36
:100A200001960895EE27FF27AA27BB2708C0A20F2B
:100A3000B31FE41FF51F220F331F441F551F969548
:100A400087957795679598F37040A9F7009799F780
:100A5000BD01CF010895052E97FB16F400940FD029
:100A600057FD05D014D007FC02D046F408C05095BD
:100A70004095309521953F4F4F4F5F4F089590958A
:100A80008095709561957F4F8F4F9F4F0895A1E29C
:100A90001A2EAA1BBB1BFD010DC0AA1FBB1FEE1FF8
:100AA000FF1FA217B307E407F50720F0A21BB30B43
:100AB000E40BF50B661F771F881F991F1A9469F7BF
:100AC00060957095809590959B01AC01BD01CF011B
:100AD00008950024552704C0080E591F880F991F38
:100AE000009729F076956795B8F37105B9F7802DD1
:100AF000952F0895991B79E004C0991F961708F067
:100B0000961B881F7A95C9F78095089597FB072E45
:100B100016F4009406D077FD08D00BD007FC05D062
:100B20003EF4909581959F4F0895709561957F4F04
:100B30000895AA1BBB1B51E107C0AA1FBB1FA61724
:100B4000B70710F0A61BB70B881F991F5A95A9F776
:0E0B500080959095BC01CD010895F894FFCFDB
:100B5E0032009100017800003F007F00BF00EB00E3
:100B6E000000280032003C00540002020509000477
:100B7E000707240224022102110291009008840822
:0C0B8E00840805020403000100020003BB
:00000001FF
